:020000040800F2
:1000000060080020D5010008DD010008DF010008BC
:10001000E1010008E3010008E5010008000000001C
:10002000000000000000000000000000E7010008E0
:10003000E901000800000000EB010008ED010008E4
:10004000EF010008EF010008EF010008EF010008D0
:10005000EF010008EF010008EF010008EF010008C0
:10006000EF010008EF010008EF010008EF010008B0
:10007000EF010008EF010008EF010008EF010008A0
:10008000EF010008EF010008EF010008EF01000890
:10009000EF010008EF010008EF010008EF01000880
:1000A000EF010008EF010008EF010008EF01000870
:1000B000EF010008EF010008EF010008EF01000860
:1000C000EF010008EF010008EF010008EF01000850
:1000D000EF010008EF010008EF010008EF01000840
:1000E000EF010008EF010008EF010008EF01000830
:1000F000EF010008EF010008EF0100080000000018
:10010000EF01000800000000EF010008EF01000807
:10011000EF010008EF010008EF010008EF010008FF
:10012000EF010008EF010008EF010008EF010008EF
:10013000EF010008EF010008EF010008EF010008DF
:10014000EF010008EF010008EF010008EF010008CF
:1001500000F002F800F02EF80AA090E8000C8244AB
:100160008344AAF10107DA4501D100F023F8AFF288
:10017000090EBAE80F0013F0010F18BFFB1A43F085
:1001800001031847040300001403000000230024A7
:1001900000250026103A28BF78C1FBD8520728BF97
:1001A00030C148BF0B6070471FB500F067F91FBD35
:1001B00010B510BD00F031F81146FFF7F5FF00F063
:1001C000BBF800F04FF803B4FFF7F2FF03BC00F0F8
:1001D00057F800000948804709480047FEE7FEE756
:1001E000FEE7FEE7FEE7FEE7FEE7FEE7FEE7FEE7E7
:1001F00004480549054A064B704700009102000873
:100200005101000860000020600800206004002008
:1002100060040020704770477047754600F02CF866
:10022000AE4605006946534620F00700854618B0E3
:1002300020B5FFF7DDFFBDE820404FF000064FF08E
:1002400000074FF000084FF0000B21F00701AC460B
:10025000ACE8C009ACE8C009ACE8C009ACE8C0092A
:100260008D46704710B50446AFF300802046BDE8C8
:100270001040FFF7A8BF00000048704700000020B2
:1002800001491820ABBEFEE72600020070470000BF
:1002900008B52648006840F47000244908602448E6
:1002A000006840F001002249086000BF2048006853
:1002B00000F002000028F9D000BF1D48406840F05F
:1002C00080001B4948600020009002E00098401C1C
:1002D000009000985028F9D31548406840F09000ED
:1002E000134948600020009002E00098401C0090F4
:1002F00000985028F9D300BF0D48406820F0030053
:100300000B494860084600680A49084008490860E7
:100310004FF47F0088600846006820F48020086061
:1003200000204860C86200F0A5F808BD88ED00E034
:1003300000100240FFFFF6EA00BFFEE700200021A8
:10034000464A126842F48032444B1A6000BF401C97
:10035000424A126802F4003119B94FF6FF72904216
:10036000F5D13E4A126802F400320AB900BFFEE736
:100370003A4AD26942F08052384BDA61384A126800
:1003800042F44042364B1A60344A5268334B5A604A
:100390001A4652685A601A46526842F480625A609D
:1003A0001A4652682F4B1A402C4B5A601A46526814
:1003B0002D4B1A43294B5A601A46D26A2B4B1A40CE
:1003C000264BDA621A46D26A294B1A43234BDA6269
:1003D0001A46126842F080621A6000BF1F4A126813
:1003E00002F00062002AF9D01C4A126842F08072C2
:1003F0001A4B1A6000BF194A126802F00072002AF4
:10040000F9D0174A126842F48032154B1A6000BFC7
:10041000134A526802F48032002AF9D0104A126856
:1004200042F400320E4B1A6000BF0D4A526802F4CB
:100430000032002AF9D0094A526822F00302074B21
:100440005A601A46526842F002025A6000BF034ADC
:10045000526802F00802002AF9D0704700100240EA
:1004600000700040FFFFC39F0000352000F0FEBF7A
:100470004906010010B5FFF761FF10BD4FF0407055
:10048000E1EE100A70470000980400080000002008
:08049000600800008C01000867
:04000005080001D519
:00000001FF
